:020000040800F2
:10000000A89C00206102000845650008F141000835
:1000100041650008490B0008317C00080000000021
:10002000000000000000000000000000A101000826
:10003000970C000800000000FD010008FD7000089A
:100040007B0200087B0200087B0200087B0200089C
:100050007B0200087B0200087B0200087B0200088C
:100060007B0200087B020008B90C00084D0B000859
:100070007B0200085D0B00087B0200087B02000881
:100080007B0200086D0B0008890800087B0200084D
:100090007B0200087B0200087B020008C30C0008FA
:1000A0007B0200087B0200087B0200087B0200083C
:1000B0007B0200087B0200087B0200080542000862
:1000C000F54100087B0200087B0200087B02000863
:1000D0007B020008117C00087B020008217C0008DC
:1000E0007B0200087B0200087B0200087B020008FC
:1000F0007B020008DD7100087B0200087B0200081B
:100100007B0200087B0200087B0200087B020008DB
:10011000297500087B0200087B0200087B020008AA
:100120007D0B00087B0200087B0200087B020008B0
:100130007B0200087B0200087B0200087B020008AB
:100140007B0200087B0200087B0200087B0200089B
:100150007B0200087B0200087B0200087B0200088B
:100160007B0200087B0200087B0200087B0200087B
:100170007B0200087B0200087B02000800000000F0
:100180007B0200087B020008DFF810D000F0D0FAF4
:1001900000480047298A0008AFF30080A89C00208F
:1001A0002C4B19680868B0E8F04F80F30988BFF35A
:1001B0006F8F4FF0000080F311887047000000003F
:1001C00008480068006880F308884FF0000080F35A
:1001D000148862B661B6BFF34F8FBFF36F8F00DF35
:1001E00000BF00BF08ED00E0DFF80C00016841F43B
:1001F00070010160704700BF88ED00E0EFF30980F7
:10020000BFF36F8F134B1A681EF0100F08BF20ED5D
:10021000108A20E9F04F106009B44FF0500080F3CD
:100220001188BFF34F8FBFF36F8F0AF07BF84FF049
:10023000000080F3118809BC19680868B0E8F04F25
:100240001EF0100F08BFB0EC108A80F30988BFF3CE
:100250006F8F7047B4000020EFF3058070470000F7
:100260000648804706480047FEE7FEE7FEE7FEE750
:10027000FEE7FEE7FEE7FEE7FEE7FEE7C9710008DE
:10028000890100082DE9F05F0546002092469B4653
:1002900088460646814640241BE02846414647469C
:1002A000224600F094F853465A46C01A914110D3A2
:1002B00011461846224600F07BF82D1A67EB01081C
:1002C0004F4622460120002100F072F817EB00098A
:1002D0004E41201EA4F10104DFDC484631462A4687
:1002E0004346BDE8F09F40EA01039B0703D009E0C5
:1002F00008C9121F08C0042AFAD203E011F8013B12
:1003000000F8013B521EF9D27047D2B201E000F86A
:10031000012B491EFBD270470022F6E710B51346A9
:100320000A4604461946FFF7F0FF204610BD00F0CC
:10033000004230F000400AD0C10D01F56071C0F3F9
:10034000160042EA0151C2084007114370470020DD
:100350000146704730B5041E71F1000404DB4FF014
:100360000044404264EB0101141E73F1000405DBFC
:100370001C464FF00043524263EB0403994208BF0E
:10038000904230BD30B50B460146002020220124AA
:1003900009E021FA02F59D4205D303FA02F5491B53
:1003A00004FA02F52844151EA2F10102F1DC30BD69
:1003B000202A04DB203A00FA02F100207047914025
:1003C000C2F1200320FA03F3194390407047202A1A
:1003D00004DB203A21FA02F00021704721FA02F3EF
:1003E000D040C2F1200291400843194670472DE9E0
:1003F000FE4F804681EA0300C00F0C46009021F0BA
:10040000004123F00045B8EB0200A94105D2404667
:10041000214690461C460B46024623F000401043FE
:1004200047D0270DC7F30A00C3F30A510290401AC0
:10043000019040286BDAC3F3130040F4801B00984E
:10044000924620B10023D2EB030A63EB0B0B019819
:100450005946C0F140025046FFF7AAFF06460D4636
:1004600050465946019A00F075F910EB08006141B9
:10047000002487EA115284EAE7731A4340D0009AB5
:1004800062B3019A012A4FEA075215DC001B61EBA7
:1004900002014FF0004202EA0752CDE90042001C7F
:1004A00041F5801132462B4600F075F903B0BDE8E6
:1004B000F08F40462146F9E7001B61EB0201001C6A
:1004C00041F5801300185B412018A2F5001747EB97
:1004D000030140EAD570B6196D4111E06D084FEA8D
:1004E000360645EAC0754FEA0752001B61EB020170
:1004F000001C41F5801149084FEA300000195141B4
:1005000032462B4603B0BDE8F04F00F035B90098F5
:10051000012240000023D0EB020263EBE07300985D
:1005200021464FEAE074B8EB000061EB0401E9E713
:1005300083F000435BE781F0004158E72DE9FE4F6F
:1005400081EA030404F0004421F0004100944FF0DC
:10055000000B23F0004350EA01045ED052EA03048A
:100560005BD0C3F30A54C1F30A552C44A4F2F3340C
:100570000194A0FB0254C1F3130141F48011C3F3B1
:10058000130343F4801301FB024400FB034E840A6F
:10059000970A44EA815447EA8357A4FB0768029507
:1005A0008D0A05FB07854FEA932C04FB0C542705A5
:1005B000029D4FEA065847EA1637B5EB08056EEB81
:1005C000070C870E920E47EA811742EA8312A7FBB7
:1005D0000201B6EB0B0164EB00042B0D43EA0C3374
:1005E0005E1844EB1C50DA465146E7FB0201C5F3A6
:1005F00013044FEA0B3343EA14534FEA0432019CCD
:1006000043EA0603A4F10C040294009CCDE900B473
:1006100000F0C1F803B0BDE8F08F00200146F9E713
:100620002DE9F04D81EA030404F0004B21F0004570
:1006300014464FF0000A23F0004150EA050220D092
:1006400054EA01021DD0C5F30A570246C5F313034D
:10065000C1F31300C1F30A5640F4801543F480132C
:10066000A7EB0608101BD64608F2FD3873EB050011
:1006700002D308F1010801E092185B41B8F1000FC4
:1006800003DA00200146BDE8F08D00204FF4801110
:10069000064684460EE0171B73EB050705D3121BB5
:1006A00063EB050306434CEA010C49084FEA3000AE
:1006B00092185B4150EA0107EDD152EA030012D0D3
:1006C00082EA040083EA0501084305D0101BAB4110
:1006D00006D20122002306E000224FF0004302E090
:1006E0006FF0010253101AEB06004CEB085110EBAF
:1006F0000A0041EB0B01BDE8F04D00F03DB8C1F33D
:100700000A52C1F3130140F2FF3341F480119A42BF
:1007100002DA00200146704740F233439A42A2F2C7
:10072000334202DC5242FFF752BEFFF741BE0000E7
:10073000064C074D06E0E06840F0010394E807002E
:1007400098471034AC42F6D3FFF722FDFCCF0008E7
:100750001CD00008202A06DBCB17203A41FA02F011
:1007600043EAE07306E041FA02F3D040C2F120020E
:10077000914008431946704710B5141E73F10004E8
:1007800008DA401C41F1000192185B411A4301D183
:1007900020F0010010BD2DE9F04D92469B4611B1AD
:1007A000B1FA81F202E0B0FA80F220329046FFF70F
:1007B000FFFD04460F4640EA0A0041EA0B0153469A
:1007C0005A46084313D0114653EA010019D0C8F124
:1007D00040025046FFF7FBFD05460E46504659467F
:1007E0004246FFF7E5FD084305D0012004E020461E
:1007F0003946BDE8F08D0020054346EAE0762C43FB
:1008000037430A986305E40AA0EB08000022FD0ABA
:1008100044EA47540A3002D500200146E9E70105C1
:1008200010196941DDE9084500196941BDE8F04D3D
:10083000A2E770B58C1810F8015B15F0070301D121
:1008400010F8013B2A1106D110F8012B03E010F833
:10085000016B01F8016B5B1EF9D12B0705D4002356
:10086000521E0DD401F8013BFAE710F8013BCB1AF8
:10087000921C03E013F8015B01F8015B521EF9D5ED
:10088000A142D8D3002070BD10B5024800F0F0FAA4
:1008900010BD00006C06002055494A6822F4403221
:1008A0004A604A6843681A434A600268526822F400
:1008B000807203685A6002685368026943EA022240
:1008C00003685A600268526822F0407203685A60F6
:1008D0000268526883681A4303685A600268926823
:1008E00022F4006203689A6002689268C3681A433F
:1008F00003689A603F4B826A9A4218D002689268F5
:1009000022F0706203689A6002689268836A1A43F0
:1009100003689A600268926822F0405203689A6005
:1009200002689268C36A1A4303689A600BE002681F
:10093000926822F0706203689A600268926822F0FE
:10094000405203689A600268926822F002020368CB
:100950009A6002689368027E43EA420203689A60E2
:100960002022125CA2B10268526842F4006203685D
:100970005A600268526822F4604203685A60026852
:100980005368426A521E43EA423203685A6005E0E5
:100990000268526822F4006203685A600268D26AF0
:1009A00022F470020368DA620268D36A828B521EF4
:1009B00043EA02520368DA620268926822F4007223
:1009C00003689A600268936890F8302043EA4222F4
:1009D00003689A600268926822F4806203689A60F1
:1009E00002689368426943EA822203689A6070470A
:1009F000002301400100000F00B587B0142102A8B8
:100A0000FFF78AFC00BF002001902E48006840F0EC
:100A100004002C4908600846006800F004000190BA
:100A200000BF00BF00BF002001900846006840F0F2
:100A3000080008600846006800F00800019000BF48
:100A400000BF88140290012003900020049002202F
:100A5000059002A91C4800F0DDFE012002900390E1
:100A6000002004900220059002A9184800F0D2FE50
:100A700002200290012003900020049002200590A3
:100A800002A9124800F0C6FE042002900020039044
:100A9000012004900220059002A90C4800F0BAFE43
:100AA00001221103084800F0B7FF01220221074884
:100AB00000F0B2FF01221146044800F0ADFF07B07C
:100AC00000BD00003038024000080240000C024027
:100AD00070B5044600224FF48051184800F09CFF86
:100AE00000250AE01649485D05F09CFF1549485568
:100AF000102000F0D1F8681CC5B2092DF2DB0122EC
:100B000011030E4800F088FFB4B10E484078207001
:100B10000C48C078C04360700A480079C043A07098
:100B200008484079E0700748807920710548C0790D
:100B300060710448007AA07170BD00000008024096
:100B4000A8CD0008D405002000BFFEE710B502487C
:100B500000F060FC10BD00004408002010B5024801
:100B600000F058FC10BD00002C0B002010B502480E
:100B700000F050FC10BD0000E407002010B5024852
:100B800000F048FC10BD0000B406002001460878C3
:100B900010381823B0FBF3F20848805CC865032ABC
:100BA00005D908686FF30900001D886503E008682F
:100BB0006FF309008865886D704700003CCF00081E
:100BC000014600208A6A8B69CBB932B1012A0DD067
:100BD000022A03D0032A10D10EE000BFCB6A03F033
:100BE0008073B3F1807F00D1012007E0CB6AB3F1BD
:100BF000C07F00D1012001E000E000BF34E08B693C
:100C0000B3F5005F1AD132B1012A07D0022A03D00E
:100C1000032A11D10AE000BF01200EE0CB6A03F0E5
:100C20008073B3F1807F00D1012006E0CB6AB3F17D
:100C3000C07F00D1012000E000BF15E032B1012AE1
:100C400005D0022A04D0032A0CD103E000BF00BF64
:100C5000012008E0CB6A03F08073B3F1807F00D1FC
:100C6000012000E000BF00BF704730B50468246871
:100C700024F4802405682C60046863608468402C38
:100C800004D10468A2600468E16003E00468A16024
:100C90000468E26030BD704708B508E000210091AB
:100CA00002E00099491C009100991529F9D3011E11
:100CB000A0F10100F2D108BD10B5102000F09CFD9C
:100CC00010BD10B5202000F097FD402000F094FDED
:100CD000802000F091FD10BD72B600BFFEE77047A6
:100CE00038B502460020009000BF92F83C00012871
:100CF00001D1022038BD012082F83C0000BF086805
:100D0000092816D91068C0680C780A3C04EB440521
:100D10000724AC40A0431468E0600C780A3C04EB64
:100D200044048868A0401468E46820431468E060C4
:100D300013E0106800690C7804EB44050724AC400C
:100D4000A043146820610C7804EB44048868A04038
:100D5000146824692043146820614868072817D262
:100D60001068406B0C79641E04EB84051F24AC40B2
:100D7000A04314686063088880B20C79641E04EB99
:100D80008404A0401468646B20431468606331E0FD
:100D900048680D2817D21068006B0C79E41F04EB2B
:100DA00084051F24AC40A04314682063088880B2E7
:100DB0000C79E41F04EB8404A0401468246B2043E6
:100DC0001468206316E01068C06A0C790D3C04EBCF
:100DD00084051F24AC40A0431468E062088880B2F8
:100DE0000C790D3C04EB8404A0401468E46A2043B1
:100DF0001468E062194B1A4C1068A04206D10868CA
:100E0000122803D1586840F480005860144C1068D0
:100E1000A0421CD10868102802D00868112816D1F9
:100E2000586840F400005860086810280FD10D4839
:100E300000680D4CB0FBF4F000EB80004000009027
:100E400002E00098401E009000980028F9D100BFF1
:100E5000002082F83C0000BF00BF4BE700230140A8
:100E600000200140B000002040420F007047704752
:100E70002DE9F04104460025002620680768206817
:100E8000D0F8048007F0020508F0200695B38EB371
:100E9000206C00F0100018B9206C40F40070206441
:100EA0002068806800F04050E8B9207ED8B92068FA
:100EB000C06A00F4700020B12068806800F480608F
:100EC00088B92068406820F0200021684860206CC4
:100ED00020F480702064206C00F4805018B9206CDD
:100EE00040F0010020642046FFF7C0FF6FF01200C1
:100EF0002168086007F0040508F08006E5B3DEB35A
:100F0000206C00F0100018B9206C40F400502064F0
:100F10002068806800F4401038BB2068806B00F4C3
:100F2000401020B12068806800F48060E8B9206833
:100F3000406800F48060C0B92068806800F04050CC
:100F400098B9207E88B92068406820F08000216828
:100F50004860206C20F480502064206C00F4807085
:100F600018B9206C40F0010020642046FFF7B7FE5E
:100F70006FF00C002168086007F0010508F04006DA
:100F800085B17EB12068006800F0010050B1206C8E
:100F900040F480302064204600F050F86FF00100EB
:100FA0002168086007F0200508F080667DB176B101
:100FB000606C40F0020060646FF0200021680860FF
:100FC0002046FFF754FF6FF0200021680860BDE85D
:100FD000F081000070B5044600250CB9012070BDF9
:100FE0001549A06A884200D000BF206C30B9204665
:100FF00000F026F80020606484F83C00206C00F0CB
:10100000100088B9206C20F4885040F00200206461
:101010002046FFF741FC00206064206C20F00200B5
:1010200040F00100206400E0012500BF002084F8AA
:101030003C0000BF2846D2E70100000F70470000C7
:1010400010B586B00446142101A8FFF765F92C49B4
:101050002068884252D100BF0020009029480068D3
:1010600040F48070274908600846006800F48070EA
:10107000009000BF00BF00BF00200090214814383E
:10108000006840F004001F491439086008460068F1
:1010900000F00400009000BF00BF01200190032079
:1010A00002900020039001A9174800F0B3FB1748F5
:1010B0001749086000204860002115488160C16020
:1010C0004FF480610161890041618900816189116A
:1010D000C16100210162416200F0BCFA08B1FFF772
:1010E000FBFD00BF0A48A063846300BF0022052106
:1010F000122001F025FB122001F00EFB06B010BDFE
:1011000000200140443802400008024010640240C0
:10111000B406002070B504460CB9012070BD94F8E7
:10112000200010B9204600F0AFF82068006840F0B9
:1011300001002168086000F075FC05460DE000F034
:1011400071FC401B0A2808D9606A40F400306062D4
:10115000052084F820000120E0E72068406800F0C6
:1011600001000028EBD02068006820F00200216810
:10117000086000F057FC05460DE000F053FC401BF2
:101180000A2808D9606A40F400306062052084F8BB
:1011900020000120C2E72068406800F0020000281B
:1011A000EBD1207E012806D12068006840F0800045
:1011B0002168086005E02068006820F08000216850
:1011C0000860607E012806D12068006840F0400079
:1011D0002168086005E02068006820F04000216870
:1011E0000860A07E012806D12068006840F0200039
:1011F0002168086005E02068006820F02000216870
:101200000860E07E012806D12068006820F0100008
:101210002168086005E02068006840F0100021683F
:101220000860207F012806D12068006840F008008F
:101230002168086005E02068006820F00800216847
:101240000860607F012806D12068006840F0040033
:101250002168086005E02068006820F0040021682B
:101260000860D4E902010843216908436169084321
:101270006168491E08432168C8610020606201203E
:1012800084F82000002049E710B586B004461421F8
:1012900001A8FFF741F82349206888423FD100BFE9
:1012A000002000902048006840F080601E490860DF
:1012B0000846006800F08060009000BF00BF00BFDB
:1012C000002000900846006840F000700860084662
:1012D000006800F00070009000BF00BF00BF002059
:1012E000009011481038006840F002000E49103993
:1012F00008600846006800F00200009000BF00BFD0
:101300004FF44050019002200290002003900320EF
:1013100004900920059001A9044800F07BFA06B06A
:1013200010BD000000680040403802400004024048
:1013300070B50446A56D00F075FB064694F83500BF
:10134000022808D08020606500BF002084F83400A7
:1013500000BF012070BD2068006820F016002168E1
:1013600008602068406920F0800021684861206C96
:1013700008B9A06C28B12068006820F00800216836
:1013800008602068006820F001002168086010E013
:1013900000F048FB801B05280BD920206065032046
:1013A00084F8350000BF002084F8340000BF03201B
:1013B000D0E72068006800F001000028E8D194F828
:1013C0005C103F208840A860012084F8350000BFF1
:1013D000002084F8340000BF00BFBBE7014691F84D
:1013E0003500022803D08020486501207047052081
:1013F00081F835000868006820F001000A68106074
:101400000020F3E70146486D7047014691F835002A
:1014100070470000F8B50446002000908C48006832
:101420004FF41651B0FBF1F7A56D2E6894F85C10DF
:1014300008208840304098B12068006800F004001F
:1014400070B12068006820F004002168086094F8FA
:101450005C1008208840A860606D40F00100606565
:1014600094F85C1001208840304068B120684069E1
:1014700000F0800040B194F85C1001208840A86022
:10148000606D40F00200606594F85C1004208840B4
:10149000304068B12068006800F0020040B194F864
:1014A0005C1004208840A860606D40F00400606516
:1014B00094F85C1010208840304078B320680068B1
:1014C00000F0080050B394F85C1010208840A86029
:1014D0002068006800F4802080B12068006800F473
:1014E000002028B9206CC8B12046216C884715E03F
:1014F000A06C98B12046A16C88470FE02068006876
:1015000000F4807028B92068006820F00800216885
:101510000860206C10B12046216C884794F85C105C
:10152000202088403040002865D02068006800F006
:10153000100000285FD094F85C1020208840A8603C
:1015400094F83500052828D12068006820F016009E
:10155000216808602068406920F0800021684861A7
:10156000206C08B9A06C28B12068006820F0080041
:101570002168086094F85C103F208840A860012032
:1015800084F8350000BF002084F8340000BF206DCF
:1015900010B12046216D8847F8BD2068006800F42E
:1015A000802080B12068006800F4002028B9606CB9
:1015B00010B12046616C88471DE0E06BD8B1204631
:1015C000E16B884717E02068006800F4807068B914
:1015D0002068006820F0100021680860012084F86D
:1015E000350000BF002084F8340000BFE06B10B16C
:1015F0002046E16B8847606D38B3606D00F00100F4
:10160000F0B1052084F835002068006820F0010062
:101610002168086000BF0098401C0090B84200D9C3
:1016200005E02068006800F001000028F3D100BF49
:10163000012084F8350000BF002084F8340000BF8A
:10164000E06C10B12046E16C884700BFA4E70000C1
:10165000B00000202DE9F0410446002500F0E2F939
:10166000074614B90120BDE8F081606A00B100BFEF
:10167000022084F8350000BF002084F8340000BF49
:101680002068006820F00100216808600AE000F08E
:10169000C9F9C01B052805D920206065032084F8FE
:1016A0003500E0E72068006800F001000028EED176
:1016B0002068056821480540D4E901010843E16834
:1016C00008432169084361690843A1690843E16946
:1016D0000843216A08430543606A042803D1D4E91A
:1016E0000B0108430543206805602068456925F023
:1016F0000705606A0543606A04280DD1A06A0543A6
:10170000E06A48B12046FFF75BFA28B140206065E7
:10171000012084F83500A6E7206845612046FFF7E0
:1017200035FA064694F85C103F208840B0600020EF
:101730006065012084F83500002094E73F8010F0B8
:101740002DE9F04704460D4616461F464FF00008A7
:10175000D4F8589000BF94F83400012802D1022038
:10176000BDE8F087012084F8340000BF94F835000C
:10177000012825D1022084F83500002060653B4611
:10178000324629462046FFF770FA94F85C103F2055
:101790008840C9F808002068006840F016002168F9
:1017A0000860206C28B12068006840F008002168BB
:1017B00008602068006840F001002168086006E0C9
:1017C00000BF002084F8340000BF4FF002084046FC
:1017D000C6E7000070B5054600F024F90446054848
:1017E0000068201AC82800D270BD00BF00BF00BF2B
:1017F000FAE700005400002010B5044604480068D1
:10180000204020B1024804602046FFF7E3FF10BDEE
:10181000143C0140F8B502460B4600250024002088
:101820000021D6E0012606FA01F51E6806EA050445
:10183000AC4274D11E7906F00306012E04D01E7945
:1018400006F00306022E13D190684F000326BE4017
:10185000B0434F00DE68BE403043906050680126C0
:101860008E40B0431E79C6F300168E403043506060
:101870001E7906F00306032E09D0D0684F00032618
:10188000BE40B0434F009E68BE403043D0601E79DA
:1018900006F00306022E13D1CF0802F1200656F8F7
:1018A00027004E07F70E0F26BE40B0434F07FF0E2E
:1018B0001E69BE403043CF0802F1200646F82700DB
:1018C00010684F000326BE40B0431E7906F00306A1
:1018D0004F00BE40304310605E6806F44036002E74
:1018E00076D000BF002600963C4E366846F480460F
:1018F0003A4F3E603E46366806F48046009600BF8A
:1019000000BF374E8F0856F827008E07370F0F2677
:10191000BE40B043334EB24202D1002624E057E02D
:10192000314EB24201D101261EE0304EB24201D109
:10193000022619E02E4EB24201D1032614E02D4EAC
:10194000B24201D104260FE02B4EB24201D105264E
:101950000AE02A4EB24201D1062605E0284EB242E4
:1019600001D1072600E008268F073F0FBE40304315
:101970001B4E8F0846F82700224E3068A0435E6851
:1019800006F4801606B120431E4E3060361D3068C6
:10199000A0435E6806F4001606B12043194E361DBA
:1019A0003060184E361F3068A0435E6806F400367B
:1019B00006B12043134E361F3060361F3068A043F7
:1019C0005E6806F4803606B120430E4E083E306055
:1019D000491C1029FFF426AFF8BD0000443802402E
:1019E00008380140000002400004024000080240A4
:1019F000000C024000100240001402400018024097
:101A0000001C0240083C0140024613690B400BB128
:101A1000012000E0002070470AB1816101E00B0461
:101A2000836170470148006870470000A4000020EF
:101A3000704770472DE9F84F0446206847692068D1
:101A4000D0F80480002594F83E90C7F3002040B100
:101A5000C8F3002028B145F001056FF480702168BB
:101A60004861C7F3402040B1C8F3002028B145F0D9
:101A700002056FF4007021684861C7F3802070B3DD
:101A8000C8F3002058B3CA46B4F82AB094F83D60B1
:101A9000206B0090BAF1200F0FD1BBF1000F0CD1D9
:101AA000212E06D0292E04D0282E06D100982128D8
:101AB00003D1204603F0E8FB11E06FF48060216859
:101AC000486145F00405B9F1100F02D0B9F1400F9B
:101AD00005D12068006840F4007021680860C7F3F1
:101AE000C02040B1C8F3002028B145F008056FF4CC
:101AF0000060216848612DB1206C28432064204695
:101B000002F0E2FCBDE8F88F2DE9F04705464FF002
:101B1000000928684668D5F82CA095F83E7095F81D
:101B20003D80102F01D0402F75D12868D0F8189033
:101B30002868446904F0010060B9BAF52A0F02D0A0
:101B4000BAF12A4F01D1012000E00020012801D183
:101B5000BDE8F08704F0010048B1C6F3402030B181
:101B6000284602F057FB284603F023F9B7E0C4F3F8
:101B7000C00030B1C6F3402018B1284602F0D0FFB3
:101B8000ADE0C4F3400030B1C6F3402018B12846A0
:101B900002F0DBFFA3E0C9F3800040B3286840688F
:101BA00000F40060B0F5006FE0D0C4F3C01048B19D
:101BB000C6F3802030B1C4F3800018B9284602F083
:101BC00043FF8CE0C4F380000028CFD0C6F3402050
:101BD0000028CBD0B8F1210F03D1284602F0E4FE53
:101BE0007DE0402F7BD1284603F032F977E028686A
:101BF000406800F40060B0F5006F70D0C4F380104E
:101C000050B1C6F3802038B1C4F3800020B9284613
:101C100002F0E7FD63E00BE0C4F3800000285ED033
:101C2000C6F3402000285AD0284602F042FD56E074
:101C3000286C10B12868446904E02868D0F818902E
:101C400028684469C4F3400060B1C6F3402048B13D
:101C5000286C10B12868D0F818904946284603F03F
:101C6000DBFA3CE0C4F3001030B1C6F3402018B1F9
:101C7000284603F05DFB32E0B8F1210F02D0B8F145
:101C8000290F16D1C4F3C01048B1C6F3802030B17B
:101C9000C4F3800018B9284603F09BFA1FE0C4F390
:101CA0008000E0B1C6F34020C8B1284603F084FAB2
:101CB00015E0C4F3801048B1C6F3802030B1C4F3FE
:101CC000800018B9284603F054FA08E0C4F38000F5
:101CD00028B1C6F3402010B1284603F03DFA00BFFA
:101CE00036E7704770B504460CB9012070BD94F812
:101CF0003D0028B9002084F83C00204600F088FB15
:101D0000242084F83D002068006820F0010021684C
:101D100008602068006840F400402168086020687E
:101D2000006820F400402168086000F045FE054688
:101D30005C496068884206D85B48854201D2012030
:101D400007E0002005E05948854201D2012000E06B
:101D50000020012800D1C9E75548B5FBF0F62068FE
:101D6000406820F03F003043216848604D4960687A
:101D7000884201D8701C07E04FF4967070434FF40E
:101D80007A71B0FBF1F0401C2168096A21F03F0133
:101D900008432168086243496068884214D8681E75
:101DA00061684900B0FBF1F0401CC0F30B0004284F
:101DB00001D204203DE0681E61684900B0FBF1F0EB
:101DC000401CC0F30B0034E0A06838B9681E61689D
:101DD00001EB4101B0FBF1F0401C0AE0681E6168B4
:101DE00001EBC10202EB0111B0FBF1F0401C40F429
:101DF0008040C0F30B0008B901201AE0A06848B980
:101E0000681E616801EB4101B0FBF1F0401CC0F3BA
:101E10000B000CE0681E616801EBC10202EB0111CE
:101E2000B0FBF1F0401CC0F30B0040F4804040F4E4
:101E300000402168C9694CF6FF729143084321684C
:101E4000C861D4E9070108432168096821F0C0018D
:101E5000084321680860D4E90310084321688968B1
:101E600048F2FF329143084321688860D4E90501B4
:101E700008432168C96821F0FF0108432168C86050
:101E80002068006840F0010021680860002020649C
:101E9000202084F83D000020206384F83E0000BF2D
:101EA00024E70000A086010080841E0000093D0098
:101EB00040420F0070477047704700002DE9F8431B
:101EC0000446894616461F46DDF82080FFF7AAFD26
:101ED000054694F83D0020287ED11923012251495E
:101EE0002046009503F01DFB10B10220BDE8F883E9
:101EF00000BF94F83C00012801D10220F6E7012040
:101F000084F83C0000BF2068006800F0010028B998
:101F10002068006840F001002168086020680068BF
:101F200020F4006021680860212084F83D00102022
:101F300084F83E000020206466626785608D2085FD
:101F40003948E0622B4642464946204602F0CCFC26
:101F500008B10120CAE700BF002000902068406956
:101F6000009020688069009000BF00BF44E02A46CE
:101F70004146204603F0DAFB50B1206C042805D11D
:101F80002068006840F40070216808600120ADE717
:101F9000606A007821680861606A401C6062608D38
:101FA000401E6085208D401E208520684069C0F35A
:101FB000800070B1208D60B1606A0078216808618E
:101FC000606A401C6062608D401E6085208D401EEE
:101FD00020852A46414600E022E0204603F06EFAC2
:101FE00050B1206C042805D12068006840F40070CE
:101FF00021680860012079E7208D0028B7D120688A
:10200000006840F4007021680860202084F83D00DA
:10201000002084F83E0000BF84F83C0000BF65E764
:10202000022063E7020010000000FFFF034A01687E
:10203000914202D10121024A1170704700540040C0
:1020400047000020704700002DE9FE4F04460E4671
:1020500017469846DDE90CABFFF7E4FC814600200B
:10206000029094F83D00202879D18C48006819210D
:10207000B0FBF1F04FF47A71B0FBF1F000EBC0016E
:1020800001EB0010029000BF0298401E02900298DF
:1020900070B900202063202084F83D00002084F8DF
:1020A0003E00206C40F0200020640220BDE8FE8F3E
:1020B00020688069C0F340000028E5D100BF94F893
:1020C0003C00012801D10220F0E7012084F83C0007
:1020D00000BF2068006800F0010028B9206800688F
:1020E00040F00100216808602068006820F400606A
:1020F00021680860222084F83D00402084F83E00DA
:1021000000202064C4F824A0A4F82AB0608D2085A3
:102110006348E0626664A764C4F84C8000202065D0
:10212000208D00287ED0A06BD0B15E48A16BC86323
:102130005D48A16BC8640020A16B0864A16B486472
:10214000A16B8864A16B0865238DD4F800C00CF1E5
:102150001001626AA06BFFF7F3FA054611E09AE0FE
:10216000202084F83D00002084F83E00206C40F0E0
:102170008000206400BF002084F83C0000BF0120E4
:1021800094E7002D4FD1232043463A463146CDE90E
:102190000009204602F0C0FEB8B1A06BFFF71EF99F
:1021A00005460020A16BC8632068006820F48060A9
:1021B000216808600020208560852068006820F084
:1021C000010021680860012070E7208D012806D1F8
:1021D0002068006820F480602168086005E02068BD
:1021E000406840F480502168486000BF00200190A2
:1021F00020684069019020688069019000BF00BF9D
:1022000000BF002084F83C0000BF2068406840F414
:102210008070216848602068406840F40060216850
:10222000486036E010E0202084F83D00002084F86B
:102230003E00206C40F01000206400BF002084F8B5
:102240003C0000BF012031E7232043463A46314697
:10225000CDE90009204602F05FFE08B1012025E724
:1022600000BF0020019020684069019020688069CB
:10227000019000BF00BF2068006840F40070216832
:102280000860202084F83D0000BF002084F83C0056
:1022900000BF00200AE7022008E70000B00000208D
:1022A0000000FFFF79430008294300082DE9FC5F87
:1022B00004460F4690469946DDE90CAB0E9EFFF7AB
:1022C000B1FB054694F83D0020287DD11923012259
:1022D0004D492046009503F024F910B10220BDE8D5
:1022E000FC9F00BF94F83C00012801D10220F6E7D2
:1022F000012084F83C0000BF2068006800F0010065
:1023000028B92068006840F0010021680860206852
:10231000006820F4006021680860212084F83D00F6
:10232000402084F83E0000202064C4F824A0A4F8D3
:102330002AB0608D20853548E0624B4642463946DA
:102340002046CDE9006502F097FE08B10120C6E7FE
:1023500031E02A463146204603F0E8F950B1206CBE
:10236000042805D12068006840F4007021680860E6
:102370000120B4E7606A007821680861606A401C47
:102380006062208D401E2085608D401E6085206823
:102390004069C0F3800070B1208D60B1606A007840
:1023A00021680861606A401C6062208D401E2085A3
:1023B000608D401E6085208D0028CAD12A46314696
:1023C000204603F07BF800E01CE050B1206C0428AC
:1023D00005D12068006840F4007021680860012081
:1023E0007DE72068006840F40070216808602020C4
:1023F00084F83D00002084F83E0000BF84F83C00D3
:1024000000BF6CE702206AE7020010000000FFFF37
:1024100010B586B00446142101A8FDF77DFF5F4981
:10242000206888427ED100BF002000905C48006890
:1024300040F002005A4908600846006800F00200B7
:10244000009000BF00BFC020019012200290002029
:102450000390032004900420059001A95148FFF740
:10246000D9F900BF002000904D481030006840F4BA
:1024700000104B49103108600846006800F4001055
:10248000009000BF00BF4848484908604FF0007006
:1024900048604021454881600021C1604FF480615F
:1024A0000161002141618161C1614FF4003101622C
:1024B00000214162FFF7CEF808B1FEF70DFC00BF26
:1024C0003A486063846300BF3748903838490860F1
:1024D00040054860002136488160C1604FF480614A
:1024E0000161002141618161C1614FF400310162EC
:1024F00000214162FFF7AEF808B1FEF7EDFB00BF27
:102500002B48A063846300BF002205211F2000F038
:1025100017F91F2000F000F900220521202000F00B
:102520000FF900E003E0202000F0F6F834E0214944
:102530002068884230D100BF002000901848006811
:1025400040F00200164908600846006800F00200EA
:10255000009000BF00BF4FF4406001901220029035
:1025600000200390032004900420059001A90D4849
:10257000FFF750F900BF00200090094810300068B4
:1025800040F480000649103108600846006800F4F5
:102590008000009000BF00BF06B010BD0054004096
:1025A0003038024000040240A0600240E4070020EE
:1025B00044080020005800407047704703480068F6
:1025C000034909780844014908607047A4000020C5
:1025D000AC00002010B50D48006840F400700B49B5
:1025E00008600846006840F480600860084600689B
:1025F00040F480700860032000F0E0F80F2000F045
:1026000007F800F05FF8002010BD0000003C024019
:102610002DE9F04188B004460027B84600BF0020ED
:1026200001902348006840F4807021490860084602
:10263000006800F48070019000BF00BF02A903A8E9
:1026400000F092F9069F1FB900F0B6F9054602E0C6
:1026500000F0B2F945001748B5FBF0F0A0F1010811
:1026600015481649086040F2E7311448C160C0F8C7
:102670000480002101618160816100F0F9FC06465F
:1026800096B90E4800F058FD06466EB92D2000F0B0
:1026900043F8102C07D2002221462D2000F050F8DC
:1026A0000748046000E00126304608B0BDE8F0812C
:1026B0004038024040420F00002000408C0B0020B8
:1026C000A800002008B500BF002000901148006855
:1026D00040F480400F4908600846006800F48040DC
:1026E000009000BF00BF00BF00200090081F0068DE
:1026F00040F08050091F08600846006800F08050D4
:10270000009000BF00BF00220F21901E00F018F8BB
:1027100008BD0000443802400146084600280DDB91
:1027200000BF00BF00F01F0301229A4043099B0035
:1027300003F1E023C3F8002100BF00BF00BF7047D2
:102740002DE9F05F80460D461646002705F0AAFAEF
:10275000074639462A46334601F00700C0F1070A0A
:10276000BAF1040F02D94FF0040A01E0C0F1070AE0
:10277000D14600F1040ABAF1070F02D24FF0000A65
:1027800001E0A0F1030AD4464FF0010A0AFA09FA5F
:10279000AAF1010A0AEA020A0AFA0CFA4FF0010B3E
:1027A0000BFA0CFBABF1010B0BEA030B4AEA0B042F
:1027B0002146404605F07EFABDE8F09F00BF00F0DC
:1027C0000702064B19684FF6FF031940044B0B43F1
:1027D00043EA0221014B196000BF70470CED00E095
:1027E0000000FA0570B504460D460CB9012070BD15
:1027F0005848006800F00700A84209D255490D70FA
:102800000846006800F00700A84201D00120EEE76A
:10281000207800F0020002281DD1207800F004008A
:10282000042805D14C48006840F4E0504A4908604B
:10283000207800F00800082805D14748006840F4D7
:102840006040454908604448006820F0F000A168F5
:10285000084341490860207800F00100A8B360688F
:10286000012807D13C4808380068C0F34040B8B997
:102870000120BCE76068022802D06068032807D105
:10288000354808380068C0F3406048B90120AEE719
:10289000314808380068C0F3400008B90120A6E7B5
:1028A0002D48006820F00300616808432A49086049
:1028B000FFF7B8F8064609E0FFF7B4F8801B41F2CD
:1028C0008831884202D9032091E707E02248006856
:1028D00000F00C006168B0EB810FEDD11D4800687D
:1028E00000F00700A84209D91A490D70084600688F
:1028F00000F00700A84201D0012078E7207800F01E
:102900000400042807D11448006820F4E050E1686E
:10291000084311490860207800F00800082808D111
:102920000D48006820F46040216940EAC1000A496E
:10293000086000F061F808490968C1F30311074A0B
:10294000515CC8400649086006480068FFF760FE11
:1029500000204CE7003C02400838024044CF000809
:10296000B0000020A80000200F2202600D4A12686B
:1029700002F0030242600B4A126802F0F002826029
:10298000084A126802F4E052C260064A126802F471
:102990006042D2080261044A126802F007020A602B
:1029A0007047000008380240003C024001480068BF
:1029B00070470000B000002000B5FFF7F7FF0449A2
:1029C0000968C1F38221034A515CC84000BD000080
:1029D0000838024054CF000800B5FFF7E7FF04496C
:1029E0000968C1F34231034A515CC84000BD000090
:1029F0000838024054CF00082DE9F0470024002594
:102A00000026A1462548006800F00C0020B10428EB
:102A100005D008283AD105E0DFF8849039E0DFF8E6
:102A2000849036E01D48001F006800F03F041B48FA
:102A3000001F006800F4800078B11A481749091F88
:102A40000968C1F38811A0FB0170014622460023EA
:102A50003846FDF717FC05460EE011480F49091FDF
:102A60000968C1F38811A0FB0170014622460023CA
:102A70003846FDF707FC05460848001F0068C0F30C
:102A80000140401C4600B5FBF6F902E0DFF810906B
:102A900000BF00BF4846BDE8F0870000083802408C
:102AA0000024F40000127A00F8B504460CB90120A5
:102AB000F8BD207800F00100002874D0F9480068C3
:102AC00000F00C0004280DD0F648006800F00C005F
:102AD000082813D1F348001F006800F48000B0F507
:102AE000800F0BD1EF4808380068C0F34040002841
:102AF00059D06068002856D10120D9E700BF60682E
:102B0000B0F5803F08D1E7480838006840F48030CD
:102B1000E449083908601EE06068B0F5A02F0DD1C7
:102B2000E0480838006840F48020DE490839086031
:102B30000846006840F4803008600CE0D948083846
:102B4000006820F48030D7490839086008460068DA
:102B500020F48020086000BF606890B1FEF762FF3B
:102B6000054606E0FEF75EFF401B642801D90320FE
:102B70009EE7CC4808380068C0F340400028F1D0F8
:102B800011E0FEF74FFF054606E0FEF74BFF401B46
:102B9000642801D903208BE7C24808380068C0F3D5
:102BA00040400028F1D1207800F0020002285FD1D7
:102BB000BC48006800F00C0058B1BA48006800F04A
:102BC0000C0008281CD1B748001F006800F48000E2
:102BD000B0B9B44808380068C0F3400020B1E068DC
:102BE000012801D0012063E7AE480838006820F0D2
:102BF000F800216940EAC100AA490839086037E0B5
:102C0000E06800B30120A8490860FEF70BFF054605
:102C100006E0FEF707FF401B022801D9032047E723
:102C2000A04808380068C0F340000028F1D09D4853
:102C30000838006820F0F800216940EAC10099498D
:102C40000839086014E0002097490860FEF7EAFEA2
:102C5000054606E0FEF7E6FE401B022801D90320E8
:102C600026E7904808380068C0F340000028F1D1FA
:102C7000207800F0080008282CD16069A8B1012054
:102C80008A490860FEF7CEFE054606E0FEF7CAFE5A
:102C9000401B022801D903200AE782486C300068F3
:102CA000C0F340000028F1D014E000207F49086004
:102CB000FEF7B8FE054606E0FEF7B4FE401B02280C
:102CC00001D90320F4E677486C300068C0F3400077
:102CD0000028F1D1207800F00400042870D10027EA
:102CE00070483830006800F0805090B900BF002074
:102CF00000906C483830006840F0805069493831A5
:102D000008600846006800F08050009000BF00BFD7
:102D100001276748006800F48070B0B96448006813
:102D200040F4807062490860FEF77CFE054606E0CC
:102D3000FEF778FE401B022801D90320B8E65C4864
:102D4000006800F480700028F2D000BFA06801285D
:102D500008D154486830006840F00100514968319A
:102D600008601DE0A06805280DD14E486830006855
:102D700040F004004B49683108600846006840F0A4
:102D8000010008600CE047486830006820F001004E
:102D90004449683108600846006820F00400086073
:102DA00000BFA068A8B1FEF73DFE054609E0FEF7AA
:102DB00039FE401B41F28831884202D9032077E670
:102DC00026E0384868300068C0F340000028EED0A4
:102DD00013E0FEF727FE054608E0FEF723FE401B42
:102DE00041F28831884201D9032061E62D486830DC
:102DF0000068C0F340000028EFD1012F07D1294817
:102E00003830006820F0805026493831086000BF13
:102E1000A069002845D02348006800F00C0008286D
:102E20005DD0A069022845D100201F490866FEF741
:102E3000F9FD054606E0FEF7F5FD401B022801D925
:102E4000032035E6174808380068C0F340600028C2
:102E5000F1D1D4E907010843616A40EA81110122F6
:102E6000A06AC2EB500041EA00412C20005D41EA1B
:102E700000600C49091F086001200B490866FEF735
:102E8000D1FD054606E0FEF7CDFD401B022801D925
:102E900003200DE6034808380068C0F340600028AE
:102EA000F1D049E00838024000004742800E474216
:102EB00000700040002021490866FEF7B3FD05467A
:102EC00006E0FEF7AFFD401B022801D90320EFE525
:102ED0001B480068C0F340600028F2D12CE0A069D4
:102EE000012800D1E4E51648001D0668A069012804
:102EF00020D006F48001E06981421BD106F03F0139
:102F0000206A814216D147F6C0703040616AB0EB4A
:102F1000811F0FD106F440310122A06AC2EB50009C
:102F2000B1EB004F06D106F070612C20005DB1EBD3
:102F3000006F01D00120BBE50020B9E50000474249
:102F4000003802407047704710B50346002200BFAA
:102F500093F83C00012801D1022010BD012083F824
:102F60003C0000BF22F0FF00CC6840EA040222F4DB
:102F700040708C6840EA040222F480604C6840EAA9
:102F8000040222F400600C6840EA040222F480503B
:102F90000C6940EA040222F400504C6940EA040241
:102FA00022F48040CC6940EA04021868426400BF01
:102FB000002083F83C0000BF00BFCEE730B50246DA
:102FC0000B4600BF92F83C00012801D1022030BD21
:102FD000012082F83C0000BF022082F83D0010680A
:102FE00044681068816824F070041868044310680D
:102FF0004460184D1068A8421BD01068B0F1804F93
:1030000017D0154D1068A84213D0144D1068A8426F
:103010000FD0134D1068A8420BD0124D1068A84273
:1030200007D0114D1068A84203D0104D1068A84277
:1030300005D121F0800158680143106881600120AA
:1030400082F83D0000BF002082F83C0000BF00BFB6
:10305000BDE70000000001400004004000080040FF
:10306000000C0040000401400040014000180040F6
:1030700010B504460CB9012010BD94F83D0028B9E4
:10308000002084F83C00204600F026F8022084F856
:103090003D00211D206804F0ADF8012084F84600B1
:1030A00000BF84F83E0001213F200155402001551A
:1030B0004120015500BF00BF012084F84200432099
:1030C0000155442001554520015500BF012084F8D9
:1030D0003D000020D0E7000008B5144A0168914285
:1030E0000FD100BF002100911149096841F0010191
:1030F0000F4A11601146096801F00101009100BFFB
:1031000013E00C4A016891420FD100BF00210091E9
:103110000749096841F48031054A11601146096880
:1031200001F48031009100BF00BF08BD00000140E4
:103130004438024000400140014691F83D0001281A
:1031400001D001207047022081F83D000868C06866
:1031500040F001000B68D8601A4B086898421BD0F9
:103160000868B0F1804F17D0174B0868984213D009
:10317000164B086898420FD0154B086898420BD040
:10318000144B0868984207D0134B0868984203D044
:10319000124B086898420CD10868806800F007025A
:1031A000062A0CD00868006840F001000B6818601F
:1031B00005E00868006840F001000B681860002016
:1031C000C0E700000000014000040040000800408B
:1031D000000C004000040140004001400018004085
:1031E0002DE9F04104460D46002700BF94F83C004D
:1031F000012802D10220BDE8F081012084F83C00C2
:1032000000BF022084F83D002068866826F077061B
:1032100026F47F46206886602868502833D00CDC6E
:10322000202850D004DC00284BD0102851D149E090
:10323000302849D040284CD139E060282DD0702862
:1032400007D0B0F5805F03D0B0F5005F41D10DE04D
:1032500041E0D5E902136A68206804F04CF8206860
:10326000866846F077062068866034E0D5E9021368
:103270006A68206804F03FF82068806840F4804065
:103280002168886027E0EA686968206804F024F90A
:103290005021206804F03AF81DE0EA686968206867
:1032A00004F02DF96021206804F030F813E0EA689A
:1032B0006968206804F010F94021206804F026F8BD
:1032C00009E000BF00BF00BF2968206804F01EF8B5
:1032D00001E0012700BF00BF012084F83D0000BFCE
:1032E000002084F83C0000BF384684E72DE9F04117
:1032F00004460D4614B90120BDE8F08194F83D0064
:1033000028B9002084F83C00204600F053F8022041
:1033100084F83D002068806844F2070188432168F2
:103320008860211D206803F065FF2068D0F80880C0
:10333000206886692068076A286840EA080840F221
:1033400003308643A969A86840EA0120064340F695
:103350000C4086434FF2F0008643E969E86840EA92
:103360000120064328690001296A40EA013006432A
:1033700027F0220727F088076969686840EA01108A
:1033800007432068C0F808802068866120680762CB
:10339000012084F8460084F83E0001213F200155B9
:1033A000012084F8420043200155012084F83D00AB
:1033B0000020A1E710B586B00446142101A8FCF74F
:1033C000ABFF6E49206888422FD100BF00200090DB
:1033D0006B48006840F002006949086008460068D0
:1033E00000F00200009000BF00BF00BF002000906E
:1033F00063481038006840F00100614910390860E6
:103400000846006800F00100009000BF00BFC02027
:103410000190022002900020039004900220059069
:1034200001A95848FEF7F6F9A5E0574920688842F7
:1034300030D100BF002000905148006840F00400E7
:103440004F4908600846006800F00400009000BF83
:1034500000BF00BF0020009049481038006840F0CD
:1034600008004749103908600846006800F0080065
:10347000009000BF00BF4FF4405001900220029026
:103480000020039004900220059001A93F48FEF718
:10349000C1F970E03E49206888422FD100BF00206A
:1034A00000903748006840F0080035490860084639
:1034B000006800F00800009000BF00BF00BF0020BF
:1034C00000902F481038006840F001002C49103956
:1034D00008600846006800F00100009000BF00BFCF
:1034E000032001900220029000200390049002200B
:1034F000059001A92348FEF78DF93CE02549206895
:10350000884238D100BF002000901D48001D00688F
:1035100040F002001A49091D08600846006800F0E2
:103520000200009000BF00BF00BF002000901448C0
:103530001038006840F0040011491039086008464E
:10354000006800F00400009000BF00BFC0200190A0
:10355000022002900020039004900320059001A90E
:103560000D48FEF757F900220F212D20FFF7E8F84C
:103570002D20FFF7D1F806B010BD00000004004078
:10358000403802400000024000080040000C0240A9
:10359000000C004000040140000802402DE9F04307
:1035A00004460D4694F83E603F20075D94F8428043
:1035B000432010F804906DB9012E02D1B8F1010F2B
:1035C00002D00120BDE8F083022084F83E0084F898
:1035D000420025E0042D0CD1012F02D1B9F1010FD9
:1035E00001D00120EEE702213F2001554320015583
:1035F00016E0012E07D1012F05D1B8F1010F02D13C
:10360000B9F1010F01D00120DCE7022084F83E006F
:1036100002213F200155022084F842004320015539
:1036200015B1042D0CD105E001220021206803F022
:1036300051FE10E001220421206803F04BFE0AE055
:1036400001220021206803F045FE012204212068A8
:1036500003F040FE00BF00BF2068006840F001009A
:10366000216808600020ADE7704770B50446206807
:10367000C5682068066906F00200022819D105F025
:103680000200022815D1401F21680861012020771F
:103690002068806900F0030018B12046FFF7E4FFBE
:1036A00005E0204600F0F0F8204600F0A4F90020E4
:1036B000207706F00400042819D105F0040004283E
:1036C00015D1C043216808610220207720688069F5
:1036D00000F4407018B12046FFF7C6FF05E0204611
:1036E00000F0D2F8204600F086F90020207706F09E
:1036F0000800082819D105F00800082815D1C04392
:1037000021680861042020772068C06900F0030068
:1037100018B12046FFF7A8FF05E0204600F0B4F8F6
:10372000204600F068F90020207706F010001028ED
:1037300019D105F01000102815D1C0432168086187
:10374000082020772068C06900F4407018B1204636
:10375000FFF78AFF05E0204600F096F8204600F0CB
:103760004AF90020207706F0010048B105F0010079
:1037700030B16FF0010021680861204600F0C2F905
:1037800006F08000802809D105F08000802805D14E
:10379000C043216808612046FFF7D4FB06F04000D3
:1037A000402809D105F04000402805D1C0432168D8
:1037B0000861204600F0B2F906F02000202809D167
:1037C00005F02000202805D1C0432168086120466B
:1037D000FFF7B9FB70BD000010B586B00446142198
:1037E00001A8FCF799FD2349206888421ED100BF3B
:1037F000002000902048006840F010001E4908603A
:103800000846006800F01000009000BF00BF4FF4B1
:10381000D4400190022002900020039004900120E7
:10382000059001A91548FDF7F5FF20E0144920682F
:1038300088421CD100BF002000900F48006840F073
:1038400001000D4908600846006800F00100009082
:1038500000BF00BF0C2001900220029000200390C6
:1038600004900320059001A90648FDF7D3FF06B098
:1038700010BD00000000014030380240001002403E
:10388000004001400000024070472DE9F04104462D
:103890000D461646002700BF94F83C00012802D1CF
:1038A0000220BDE8F081012084F83C0000BF36B161
:1038B000042E1BD0082E31D00C2E5ED145E02946B7
:1038C000206803F02DFD2068806940F00800216821
:1038D00088612068806920F0040021688861206880
:1038E0008069296908432168886148E02946206881
:1038F00003F04EFD2068806940F400602168886113
:103900002068806920F4806021688861206880696F
:10391000296940EA01202168886130E02946206851
:1039200003F074FD2068C06940F008002168C86198
:103930002068C06920F004002168C8612068C0695F
:10394000296908432168C86119E02946206803F005
:1039500099FD2068C06940F400602168C861206852
:10396000C06920F480602168C8612068C069296945
:1039700040EA01202168C86101E0012700BF00BFC3
:1039800000BF002084F83C0000BF384689E710B52E
:1039900004460CB9012010BD94F83D0028B9002060
:1039A00084F83C00204600F025F8022084F83D0011
:1039B000211D206803F01EFC012084F8460000BF92
:1039C00084F83E0001213F2001554020015541204F
:1039D000015500BF00BF012084F84200432001557B
:1039E000442001554520015500BF012084F83D00C9
:1039F0000020D0E77047704770B504460D4615B9F2
:103A000094F83E000BE0042D02D13F20005D06E05B
:103A1000082D02D14020005D01E04120005D012819
:103A200001D0012070BD1DB9022084F83E000EE0D7
:103A3000042D03D102213F20015508E0082D03D1B8
:103A400002214020015502E00221412001550122BE
:103A50002946206803F03EFC23492068884203D0B1
:103A600022492068884201D1012000E0002028B1CD
:103A70002068406C40F40040216848641A4920687E
:103A800088421BD02068B0F1804F17D018492068B9
:103A9000884213D01749206888420FD01649206801
:103AA00088420BD011492068884207D0134920680A
:103AB000884203D01249206888420CD1206880686F
:103AC00000F00706062E0CD02068006840F00100C8
:103AD0002168086005E02068006840F00100216866
:103AE000086000209EE70000000001400004014043
:103AF0000004004000080040000C0040004001406D
:103B00000018004010B5044603492068884201D1DE
:103B1000FEF754FD10BD0000002000407047F8B5CE
:103B200004460D46164694F8420020282DD105B1D2
:103B30000EB90120F8BD01202063002060633246E9
:103B40002946204603F082FF0746206B012819D141
:103B500000BF002000902068006800902068406846
:103B6000009000BF00BF00BF00BF21680C3151E8CA
:103B7000001F41F0100021680C3141E80002002ACA
:103B8000F3D100E001273846D4E70220D2E7000055
:103B900070B504460D460849206888420AD10020C5
:103BA00001E0411C88B2A842FBDB802203490448A3
:103BB000FFF7B5FF70BD0000004C0040EB05002092
:103BC000540A0020704700002DE9F84F0446206891
:103BD00005682068C668206847694FF00009CA4632
:103BE00005F00F09B9F1000F0AD105F0200038B136
:103BF00006F0200020B1204603F094FDBDE8F88FC8
:103C0000B9F1000F7CD007F0010018B906F49070EC
:103C1000002875D005F0010030B106F4807018B1AD
:103C2000606C40F00100606405F0040030B107F002
:103C3000010018B1606C40F00200606405F0020001
:103C400030B107F0010018B1606C40F0040060640E
:103C500005F0080048B106F0200010B907F0010097
:103C600018B1606C40F008006064606C002846D0B9
:103C700005F0200028B106F0200010B1204603F026
:103C800051FD20684069C0F3801A606C00F00800A4
:103C900010B9BAF1000F2DD0204603F0EAFC2068DD
:103CA000406900F04000402820D100BF00BF2168DB
:103CB000143151E8001F21F040002168143141E81F
:103CC0000002002AF3D100BFE06B50B17F48E16BE6
:103CD0000865E06BFDF782FB88B1E06B016D8847FA
:103CE0000DE02046FFF76EFF09E009E02046FFF7F0
:103CF00069FF04E02046FFF765FF002060647DE770
:103D0000206B012878D105F01000002874D006F04F
:103D100010000028FAD000BF002000902068006842
:103D2000009020684068009000BF00BF2068406994
:103D300000F04000402870D1E06B006840681FFA36
:103D400080F8B8F1000F58D0A08D404555DDA4F89B
:103D50002E80E06BC069B0F5807F43D000BF00BF0C
:103D600021680C3151E8001F21F4807021680C316A
:103D700041E80002002AF3D100BF00BF00BF216864
:103D8000143151E8001F21F001002168143141E88D
:103D90000002002AF3D100BF00BF00BF2168143128
:103DA00051E8001F21F040002168143141E8000271
:103DB000002AF3D100BF202084F8420000202063B5
:103DC00000BF00BF21680C3151E8001F21F0100036
:103DD00021680C3141E80002002AF3D100BFE06BFA
:103DE000FDF7A6FA02206063A08DE28D801A81B2F1
:103DF0002046FFF7CDFE0EE052E0A08D40450AD1EF
:103E0000E06BC069B0F5807F05D102206063A18DB1
:103E10002046FFF7BDFEF1E6FFE7A08DE18D401AD9
:103E20001FFA80F8E08DD0B3B8F1000F37D000BF93
:103E300000BF21680C3151E8001F21F49070216807
:103E40000C3141E80002002AF3D100BF00BF00BFDF
:103E50002168143151E8001F21F00100216814315C
:103E600041E80002002AF3D100BF202084F842007C
:103E70000020206300BF00BF21680C3151E8001F03
:103E800021F0100021680C3141E80002002AF3D132
:103E900000BF0220606341462046FFF779FEADE691
:103EA00005F0800030B106F0800018B1204603F024
:103EB00039FEA3E605F0400030B106F0400018B12D
:103EC000204603F00CFC99E600BF97E63975000820
:103ED00010B504460CB9012010BDA06900B100E086
:103EE00000BF94F8410028B9002084F84000204623
:103EF00000F02AF8242084F841002068C06820F4EB
:103F000000502168C860204603F08AFC20680069E0
:103F100020F49040216808612068406920F02A0060
:103F2000216848612068C06840F400502168C8607A
:103F300000206064202084F8410084F842000020C2
:103F4000606300BFC8E7000010B586B004461421C6
:103F500001A8FCF7E1F96C492068884255D100BFFF
:103F6000002000906948006840F40020674908601C
:103F70000846006800F40020009000BF00BF00BFAA
:103F80000020009061481038006840F004005F494C
:103F9000103908600846006800F00400009000BF77
:103FA00000BF4FF440600190022002900020039077
:103FB000032004900820059001A95548FDF72AFC2C
:103FC00054485549086040054860002152488160C6
:103FD000C1604FF480610161002141618161C16173
:103FE00001624162FDF736FB08B1FCF775FE00BFC8
:103FF0004948E063846300BF002205213420FEF7B6
:104000009FFB3420FEF788FB7CE04449206888420F
:104010003BD100BF002000903C48001D006840F0EC
:1040200010003A49091D08600846006800F01000B9
:10403000009000BF00BF00BF002000903348103840
:10404000006840F0010031491039086008460068F6
:1040500000F00100009000BF00BF4FF4C06001906D
:104060000220029000200390032004900720059076
:1040700001A92B48FDF7CEFB002205212520FEF7E4
:104080005FFB2520FEF748FB3CE02649206888427C
:1040900038D100BF002000901C48006840F4802008
:1040A0001A4908600846006800F48020009000BFAC
:1040B00000BF00BF0020009014481038006840F096
:1040C00008001249103908600846006800F008002E
:1040D000009000BF00BF4FF440700190022002909A
:1040E00000200390032004900720059001A90E48AA
:1040F000FDF790FB002205212720FEF721FB27205A
:10410000FEF70AFB06B010BD004C004040380240EC
:1041100000080240406002402C0B002000100140CB
:104120000000024000480040000C02407047704709
:104130002DE9F84F04460E46174699464FF0000AFF
:1041400094F84100202850D106B117B90120BDE8EC
:10415000F88F00206064212084F84100FDF762FCA4
:104160008246A784E784A068B0F5805F04D1206907
:1041700010B90025B04602E035464FF000081EE0B9
:104180005346002280212046CDF8009003F0FAFC2F
:1041900020B1202084F841000320D8E745B9B8F8C1
:1041A0000000C0F308002168486008F1020803E03D
:1041B0002878216848606D1CE08C401EE084E08C0B
:1041C0000028DDD15346002240212046CDF8009042
:1041D00003F0D8FC20B1202084F841000320B6E78A
:1041E000202084F841000020B1E70220AFE77047AB
:1041F00000BFFEE710B50248FDF71CFC10BD000033
:104200003C07002010B50248FDF77EFC10BD000001
:104210003C070020C16AB1F52A0F02D10121C16219
:1042200005E0C16AB1F12A4F01D10821C16270478E
:10423000F8B5054600200090AC6B94F83D60394815
:1042400000681921B0FBF1F04FF47A71B0FBF1F086
:10425000C0EBC00000EB8000009000BF009820B9C8
:10426000206C40F02000206409E00098401E00907F
:104270002068006800F40070B0F5007FEED000BF49
:10428000606B10B10020616BC863A06B10B100209F
:10429000A16BC8632068006820F480602168086012
:1042A00000206085606B10B10020616B0865A06B19
:1042B00010B10020A16B08652068006820F00100A3
:1042C0002168086094F83D0060280AD1202084F815
:1042D0003D00002084F83E0020642046FDF7A8FB46
:1042E0001EE006F02800282811D12068006840F060
:1042F0000100216808602068006840F4806021683F
:10430000086000202063282084F83D0005E020207C
:1043100084F83D00002084F83E002046FDF7E1FCD3
:10432000F8BD0000B000002070B50546AC6B606BB6
:1043300010B10020616BC863A06B10B10020A16BAD
:10434000C8632846FDF75EF8022814D0206800688C
:1043500020F480602168086000206085202084F8B7
:104360003D00002084F83E00206C40F010002064E6
:104370002046FDF7B6FC70BD2DE9F0410746BC6B49
:1043800094F83D6094F83E80E56A2068406820F427
:10439000407021684860606B10B10020616BC86399
:1043A000A06B10B10020A16BC86306F0210021288A
:1043B00006D006F02200222826D1B8F1200F23D102
:1043C0002068406820F40060216848600020608513
:1043D000292E08D121202063282084F83D00204682
:1043E000FEF7EBF809E02A2E07D1222020632820CF
:1043F00084F83D002046FEF7DFF82068406840F46E
:1044000040702168486054E094F83E00002850D085
:10441000608D012805D12068006820F48060216843
:1044200008602068406820F440702168486015F5F5
:10443000803F06D0082D04D0B5F12A4F01D0202DA1
:1044400005D12068006840F4007021680860206889
:10445000406820F48050216848602068406820F45B
:1044600000602168486000206085206C18B12046FB
:10447000FDF737FC1DE0202084F83D0094F83E0055
:10448000402807D1002084F83E0020632046FDF735
:10449000CDFD0EE0002084F83E00082D01D0202D37
:1044A00002D10020206301E0122020632046FDF7A6
:1044B00002FDBDE8F08101684969C1F3C01111B185
:1044C00000210268116170472DE9F041044694F81B
:1044D0003D6094F83E70102F01D0402F07D1222E5E
:1044E00005D12068006820F400602168086006F0AB
:1044F0002800282805D100202063282084F83D00CA
:1045000010E02068406800F40060B0F5006F07D04C
:10451000602E05D0202084F83D00002084F83E0065
:10452000002020632068406800F40060B0F5006F50
:1045300040D12068406820F4006021684860606BCA
:1045400090F83500012814D04848616B0865606B0D
:10455000FCF744FF00285BD02068006820F00100D1
:1045600021680860202084F83D00606B016D884759
:104570004EE03E48A16B0865A06BFCF72FFF0028BA
:1045800046D020684069C0F3801030B120680069CF
:10459000616A0870606A401C60622068006820F0F0
:1045A000010021680860202084F83D00A06B016DA7
:1045B00088472DE094F83D0060281AD1202084F827
:1045C0003D000020206420684069C0F3801030B1B5
:1045D00020680069616A0870606A401C6062206837
:1045E000006820F00100216808602046FDF720FAED
:1045F0000EE020684069C0F3801030B12068006987
:10460000616A0870606A401C60622046FDF769FBC1
:10461000256C05F0010058B905F00200022807D00A
:1046200005F00400042803D005F00800082805D18F
:104630002068406820F4E0602168486094F83D609C
:10464000206C00F0040004280ED1282E0CD108485C
:10465000E06200202063202084F83D00002084F8E0
:104660003E002046FDF726FCBDE8F08131420008FF
:104670000000FFFF014608684069C0F38020B0B128
:104680006FF480600A68506100200863202081F880
:104690003D00002081F83E00086C40F004000864F2
:1046A00000BF002081F83C0000BF012070470020BF
:1046B000FCE770B50446E56A608D042810D12068D7
:1046C000406820F480602168486020680069616A61
:1046D0000870606A401C6062608D401E60857FE0EB
:1046E000608D03281AD12068406820F4806021681A
:1046F0004860042D07D0022D05D02068006820F402
:1047000080602168086020680069616A0870606ADA
:10471000401C6062608D401E608561E0608D0228F3
:1047200054D1012D01D0102D06D12068006820F44D
:1047300080602168086010E0042D01D0022D06D1B0
:104740002068006840F480602168086005E0206807
:10475000006840F400702168086020680069616AA0
:104760000870606A401C6062608D401E6085206831
:104770000069616A0870606A401C6062608D401E5A
:1047800060852068406820F44070216848602020DF
:1047900084F83D0094F83E00402807D1002084F8BA
:1047A0003E0020632046FDF741FC19E0002084F81C
:1047B0003E00082D01D0202D02D10020206301E011
:1047C000122020632046FDF776FB09E0206800698F
:1047D000616A0870606A401C6062608D401E60857E
:1047E00070BD70B5044694F83D0022287AD1E66A7F
:1047F000658D032D13D920680069616A0870606AAD
:10480000401C6062608D401E6085608D032868D109
:104810002068406820F480602168486061E0E06AB8
:10482000022858D0012D01D0002D54D1204600F08F
:1048300055FFA0BB2068006820F4806021680860F4
:104840002068406820F4E0602168486020680069C2
:10485000616A0870606A401C6062608D401E6085FD
:10486000202084F83D0094F83E00402807D1002025
:1048700084F83E0020632046FDF7D8FB31E000209D
:1048800084F83E00082E01D0202E02D100202063A3
:1048900001E0122020632046FDF70DFB21E0FFE739
:1048A0002068406820F4E060216848602068006962
:1048B000616A0870606A401C6062608D401E60859D
:1048C000202084F83D00002084F83E002046FDF7BB
:1048D00008FA06E006E02068406820F4806021685D
:1048E000486000BF70BD00002DE9F84304460D4646
:1048F00017469846E66A082E04D0012E02D016F517
:10490000803F06D12068006840F48070216808600C
:1049100008E0206B122805D12068006840F4807000
:10492000216808603B4600224FF001112046CDF877
:10493000008000F0F6FD60B12068006800F480702F
:10494000B0F5807F02D14FF4007020640320BDE8F1
:10495000F8832069B0F5804F04D105F0FE0021688E
:10496000086112E005F44070F02141EAE01021688E
:10497000086143463A460B49204600F031FE08B133
:104980000120E4E7E8B22168086143463A46054958
:10499000891F204600F024FE08B10120D7E700203F
:1049A000D5E700000800010070B50446E56A94F8F8
:1049B0003D00212847D1608D50B1606A00782168A0
:1049C0000861606A401C6062608D401E60853AE04C
:1049D000082D16D0202D14D015F5803F11D0206859
:1049E000406820F4E06021684860112020630020C6
:1049F00084F83E00202084F83D002046FDF75CFA54
:104A000021E02068406820F4E06021684860206868
:104A1000006840F4007021680860002020632020B6
:104A200084F83D0094F83E00402806D1002084F828
:104A30003E002046FDF706FB05E0002084F83E001E
:104A40002046FDF739FA70BD2DE9F041044694F88F
:104A50003D5094F83E70E66A208DB0BB212D3CD1CC
:104A6000082E16D0202E14D016F5803F11D02068C5
:104A7000406820F4E0602168486011202063002035
:104A800084F83E00202084F83D002046FDF714FA0B
:104A900044E02068406820F4E060216848602068B5
:104AA000006840F400702168086000202063202026
:104AB00084F83D0094F83E00402807D1002084F897
:104AC0003E002046FDF7BEFA28E006E0002084F80C
:104AD0003E002046FDF7F0F920E0212D03D0402FC5
:104AE0001CD1222D1AD1608D30B92068406820F485
:104AF00080602168486011E094F83E00402803D1AE
:104B0000204600F0A5F909E0606A00782168086194
:104B1000606A401C6062608D401E6085BDE8F08167
:104B2000416CC9B202681161416B11B1416BC96B33
:104B300021B9816B41B1816BC96B29B101684968A9
:104B400041F4006102685160704738B590F83E202A
:104B5000C16A036B90F83D40222C73D1046D64B997
:104B6000402A0AD100BF00240094046864690094BC
:104B70000468A469009400BF1AE1046DC4B9046913
:104B8000B4F5404F14D100BF002400940468646958
:104B900000940468A469009400BF00BF04682468FE
:104BA00044F4807405682C60046D641C0465FFE0A7
:104BB000448D8CB900BF002400940468646900949B
:104BC0000468A469009400BF00BF0468246844F42A
:104BD000007405682C60DDE0448D012C72D111F564
:104BE000803F30D10468246824F4806405682C6018
:104BF0000468646804F40064B4F5006F10D10468BC
:104C0000246824F4806405682C6000BF00240094AC
:104C10000468646900940468A469009400BFB9E062
:104C200000BF002400940468646900940468A469C7
:104C3000009400BF00BF0468246844F40074056851
:104C40002C60A7E0A9E0082923D0202921D0122B2D
:104C500001D101291DD104290AD0022908D0102927
:104C600006D00468246824F4806405682C6005E09C
:104C70000468246844F4806405682C6000BF002444
:104C800000940468646900940468A469009400BFF7
:104C900080E00468246824F4806405682C6000BF08
:104CA000002400940468646900940468A469009472
:104CB00000BF00BF0468246844F4007405682C60D9
:104CC00068E0FFE7448D022C3BD1042910D0022973
:104CD0000ED010290CD00468246824F48064056880
:104CE0002C600468246844F4006405682C6005E0C6
:104CF0000468246844F4806405682C60046864686F
:104D000004F40064B4F5006F10D111F5803F07D0B2
:104D1000012905D0082903D0102901D0202905D167
:104D20000468646844F4805405686C6000BF002423
:104D300000940468646900940468A469009400BF46
:104D400028E00468246844F4806405682C600468E2
:104D5000646804F40064B4F5006F10D111F5803F6D
:104D600007D0012905D0082903D0102901D0202916
:104D700005D10468646844F4805405686C6000BF21
:104D8000002400940468646900940468A469009491
:104D900000BF00BF002404650AE000BF00240094A7
:104DA0000468646900940468A469009400BF00BFAB
:104DB00038BD90F83E1040290ED1016D29B9416CE3
:104DC00001F0FE010268116141E0416CC9B241F09D
:104DD0000101026811613AE00169B1F5804F20D10B
:104DE00090F83D10212905D1416C01F0FE010268C7
:104DF000116105E0416CC9B241F001010268116125
:104E0000416B11B1416BC96B21B9816BF9B1816BF8
:104E1000C96BE1B10168496841F400610268516001
:104E200015E0016D41B9416C01F44071F02242EA94
:104E3000E111026811610AE0016D012907D1416C9D
:104E400001F44071F12242EAE111026811617047F8
:104E500070B5044694F83D50206D98B9E06C012877
:104E600007D1A06CC0B221680861206D801C20654C
:104E700050E0A06CC0F3072021680861206D401C41
:104E8000206547E0206D012807D1A06CC0B22168E1
:104E90000861206D401C20653CE0206D022836D161
:104EA000222D09D12068006840F4807021680860D4
:104EB000206D401C20652DE0608D60B1212D0AD150
:104EC000606A007821680861606A401C6062608DD9
:104ED000401E60851EE0608DE0B9212D1AD120684A
:104EE000406820F4E060216848602068006840F471
:104EF00000702168086000202063202084F83D00B5
:104F0000002084F83E002046FDF79CF802E0204691
:104F1000FFF7D1FA70BD00002DE9F84304460F46B3
:104F200015469946DDE908862068006840F48060EF
:104F3000216808602068006840F48070216808607B
:104F4000434600224FF001112046009600F0E9FA96
:104F500060B12068006800F48070B0F5807F02D1F5
:104F60004FF4007020640320BDE8F88307F0FE00D2
:104F700021680861334642463E49204600F030FB36
:104F800008B10120F0E700BF0020009020684069D0
:104F9000009020688069009000BF00BF3246414603
:104FA000204600F0C3FB50B1206C042805D12068D6
:104FB000006840F40070216808600120D4E7B9F16E
:104FC000010F03D1E8B22168086117E0C5F307209B
:104FD0002168086132464146204600F0A7FB50B1E7
:104FE000206C042805D12068006840F40070216816
:104FF00008600120B8E7E8B22168086132464146FE
:10500000204600F093FB50B1206C042805D12068A5
:10501000006840F40070216808600120A4E720685F
:10502000006840F4807021680860434600224FF019
:1050300001112046009600F074FA58B1206800680B
:1050400000F48070B0F5807F02D14FF400702064CE
:10505000032089E7F8B240F0010021680861334677
:1050600042460449204600F0BBFA08B101207BE724
:10507000002079E7020001002DE9F8430446884644
:1050800015469946DDE908672068006840F480709D
:1050900021680860334600224FF001112046009736
:1050A00000F03FFA60B12068006800F48070B0F54D
:1050B000807F02D14FF4007020640320BDE8F883A4
:1050C00008F0FE00216808613B463246214920462F
:1050D00000F086FA08B10120F0E700BF0020009040
:1050E00020684069009020688069009000BF00BF80
:1050F0003A463146204600F019FB50B1206C042896
:1051000005D12068006840F4007021680860012023
:10511000D4E7B9F1010F03D1E8B22168086117E0C3
:10512000C5F30720216808613A463146204600F061
:10513000FDFA50B1206C042805D12068006840F4C5
:105140000070216808600120B8E7E8B221680861B2
:105150000020B3E702000100418D49B101680969EF
:10516000426A1170416A491C4162418D491E418564
:10517000704770B5044694F83D50608DD8B12068F2
:105180000069616A0870606A401C6062608D401E40
:105190006085608D78B92A2D0DD12068406820F493
:1051A00080602168486022202063282084F83D0028
:1051B0002046FDF701FA70BD418D49B1416A097879
:1051C00002681161416A491C4162418D491E418555
:1051D000704770B5044694F83D50608DD8B1606A50
:1051E000007821680861606A401C6062608D401E22
:1051F0006085608D78B9292D0DD12068406820F434
:1052000080602168486021202063282084F83D00C8
:105210002046FDF7D2F970BDF8B504460D460027CB
:1052200094F83D0000F0280028281CD12068406830
:1052300020F4806021684860C5F3800000B9012730
:10524000C5F3C01010B9A08986B201E0208B86B2E8
:1052500000BF002084F83C0000BF3246394620469B
:10526000FCF7E7FB0FE000BF0020009020684069DA
:10527000009020688069009000BF00BF00BF002040
:1052800084F83C0000BFF8BD70B5044694F83D506A
:10529000E66A082E01D0202E1FD1282D1DD12348CB
:1052A000E0622068406820F4E060216848606FF4A4
:1052B0008060216848612068006820F4806021686F
:1052C000086000202063202084F83D00002084F83E
:1052D0003E002046FCF7EEFD26E0212D20D11348AC
:1052E000E06221202063202084F83D00002084F823
:1052F0003E002068406820F4E060216848606FF458
:105300008060216848612068006820F4806021681E
:1053100008602046FFF7CFF82046FDF74EF903E07E
:105320006FF480602168486170BD00000000FFFFDD
:1053300038B5044694F83D502068406820F4E06099
:105340002168486000BF00200090206840690090FC
:105350002068006840F001002168086000BF00BFBD
:105360002068006820F48060216808602068406838
:1053700000F40060B0F5006F42D1222D01D02A2D3B
:105380001FD1A06B006840686085608D18B1206CEB
:1053900040F0040020642068406820F40060216828
:1053A0004860A06BFCF731F8012829D04148A16B77
:1053B0000865A06BFCF712F810B3A06B016D88476D
:1053C0001EE0606B006840686085608D18B1206CDD
:1053D00040F0040020642068406820F400602168E8
:1053E0004860606BFCF711F8012809D03148616B07
:1053F0000865606BFBF7F2FF10B1606B016D8847C9
:10540000608D18B320684069C0F3800048B12068FF
:105410000069616A0870606A401C6062608D401EAD
:10542000608520684069C0F3801048B12068006939
:10543000616A0870606A401C6062608D401E608511
:10544000608D18B1206C40F004002064206C18B10D
:105450002046FFF739F82BE02A2D07D100202063E2
:10546000282084F83D002046FDF7A6F894F83D007A
:1054700028280DD11048E06200202063202084F805
:105480003D00002084F83E002046FCF713FD0FE0AD
:10549000206B222801D0222D0AD100202063202059
:1054A00084F83D00002084F83E002046FDF784F893
:1054B00038BD0000314200080000FFFF70B504460F
:1054C0000D46164625E02046FFF7D4F808B1012026
:1054D00070BD681CE8B1FCF7A5FA801BA84200D893
:1054E000BDB920684069C0F3800090B900202063F6
:1054F000202084F83D00002084F83E00206C40F01D
:105500002000206400BF002084F83C0000BF012080
:10551000DEE720684069C0F380000028D3D0002077
:10552000D6E72DE9F04104460D4617461E46DDF844
:10553000188038E0701CA8B3FCF774FAA0EB0800E0
:10554000B04200D876BBC5F3074001280AD12068D5
:105550004069A9B20840A9B2884201D101200BE0FC
:10556000002009E020688069A9B20840A9B28842F9
:1055700001D1012000E00020B84214D100202063B6
:10558000202084F83D00002084F83E00206C40F08C
:105590002000206400BF002084F83C0000BF0120F0
:1055A000BDE8F081FFE7C5F3074001280AD1206874
:1055B0004069A9B20840A9B2884201D101200BE09C
:1055C000002009E020688069A9B20840A9B2884299
:1055D00001D1012000E00020B842ABD00020DFE77D
:1055E0002DE9F04104460D4616461F4658E0206856
:1055F0004069C0F38020E8B12068006840F4007082
:10560000216808606FF48060216848610020206391
:10561000202084F83D00002084F83E00206C40F0FB
:105620000400206400BF002084F83C0000BF01207B
:10563000BDE8F081701C90B3FCF7F4F9C01BB042D8
:1056400000D866BBC5F3074001280AD1206840692D
:10565000A9B20840A9B2884201D101200BE0002084
:1056600009E020688069A9B20840A9B2884201D146
:10567000012000E0002090B900202063202084F861
:105680003D00002084F83E00206C40F020002064A3
:1056900000BF002084F83C0000BF0120C8E7FFE7FE
:1056A000C5F3074001280AD120684069A9B2084023
:1056B000A9B2884201D101200BE0002009E0206856
:1056C0008069A9B20840A9B2884201D1012000E056
:1056D000002000288BD00020AAE7000008B5014672
:1056E00000200090104800681922B0FBF2F04FF43F
:1056F0007A72B0FBF2F000EB8000009000BF0098DF
:10570000401E0090009828B9086C40F02000086402
:10571000012008BD0868006800F40070B0F5007F43
:10572000EDD00020F5E70000B000002070B5044681
:105730000D46164625E02046FEF79CFF08B10120E5
:1057400070BD681CE8B1FCF76DF9801BA84200D859
:10575000BDB920684069C0F3C01090B90020206333
:10576000202084F83D00002084F83E00206C40F0AA
:105770002000206400BF002084F83C0000BF01200E
:10578000DEE720684069C0F3C0100028D3D00020B5
:10579000D6E700002DE9F04188B00024002500265E
:1057A0004FF0C80830A002F045FA002710E000F0E2
:1057B00009FA02E0012003F013FA364800780028C5
:1057C000F8D0002033490870052003F009FA7F1C47
:1057D000142FECDB002724E000F0F4F902E00120B4
:1057E00003F0FEF92B4800780028F8D00020294962
:1057F000087002A803A904AB05AACDE9001006A908
:1058000007A800F08DF9BDF910000444BDF90C00A3
:105810000544BDF908000644052003F0E1F9781CB1
:1058200087B2C82FD8DBC82094FBF0F000B21A4929
:105830000880C82095FBF0F000B218490880C82005
:1058400096FBF0F000B2164908800846B0F9003027
:105850001248B0F900201048B0F9001011A002F071
:10586000E9F908B0BDE8F0815B494D555D20436121
:105870006C6962726174696E672E2E2E20506C65A1
:10588000617365204B454550205354494C4C210DC4
:105890000A000000470000204000002042000020D5
:1058A000440000205B494D555D2043616C69627284
:1058B0006174696F6E20446F6E6521204F66667358
:1058C0006574733A2067783D25642C2067793D25FF
:1058D000642C20677A3D25640D0A0000F0B52DED9B
:1058E000068B8BB005460E461446FCF79BF8074620
:1058F00005A806A907AB08AACDE9001009A90AA8BE
:1059000000F00EF96DA002F095F9BDF81C00704989
:105910000988401A00B20790BDF818006D4909883F
:10592000401A00B20690BDF814006B490988401A6D
:1059300000B2059055B3BDF9240000EE900AF8EED0
:10594000E00A60EEA00ABDF9200001EE100AF8EEB0
:10595000C11A01EE100AB8EEC11A41EE810AB0EE8A
:10596000600A02F015FBB0EE408AF0EE480ABDF97D
:105970002800404200EE100AB8EEC00A02F0B2F968
:10598000DFED560A20EE200A85ED000A9EB1BDF932
:10599000200000EE100AF8EEC00ABDF9240000EE67
:1059A000100AB8EEC00A02F09DF9DFED4C0A20EEB5
:1059B000200A86ED000AECB34948006848B348481D
:1059C0000068381A01EE100AB8EE411ADFED451AE8
:1059D00081EE212AB0EE420ABDF9140001EE100A50
:1059E000B8EEC11ADFED401A81EE212AF0EE420A2C
:1059F000BDF91400002801DB014600E041420F29F7
:105A000006DD3A4890ED001A00EE801A80ED001A8B
:105A100000BF364890ED000A84ED000A94ED000ABC
:105A2000DFED330AB4EEE00AF1EE10FA0ADD94ED90
:105A3000000A00E017E0DFED2F0A30EE600A84ED87
:105A4000000A10E094ED000ADFED2B0AB4EEE00A44
:105A5000F1EE10FA07D294ED000ADFED260A30EEDF
:105A6000200A84ED000A94ED000A10EE101A084690
:105A7000FAF75DFC41EC180B96ED000A10EE101AD7
:105A80000846FAF754FC41EC190B95ED000A10EEAC
:105A9000101A0846FAF74BFC41EC1A0B8DED028BFD
:105AA0008DED009B53EC1A2B14A002F0C3F80C48A8
:105AB00007600BB0BDEC068BF0BD0000444D4120EB
:105AC000526563656976652C4F4B0D0A0000000036
:105AD000400000204200002044000020E12E6542EA
